:020000040800F2
:100000000050002005170008599D00085B9D00085E
:100010005D9D00085F9D0008619D000800000000D4
:10002000000000000000000000000000639D0008C8
:10003000659D000800000000679D0008F13500087C
:10004000B5170008B5170008B5170008B517000860
:10005000B5170008B5170008B5170008B517000850
:10006000B5170008B5170008B5170008B517000840
:10007000B5170008B5170008B13B0008B517000810
:10008000B5170008B5170008B5170008B517000820
:10009000B5170008B5170008B5170008B517000810
:1000A000B5170008B5170008B5170008B517000800
:1000B0009D300008B5170008B5170008B5170008EF
:1000C000B517000801280008012E0008B517000820
:1000D000B5170008B933000861330008B5170008E8
:1000E000B5170008B5170008B51700080000000094
:1000F0000000000000000000000000000000000000
:0C01000000000000000000005FF808F1A3
:1001100010B5054C237833B9044810B10448AFF347
:1001200000800121217010BDA809002000000000FE
:100130005079010808B5064B1BB106480649AFF3D4
:1001400000800648016811B1054A02B1904708BD18
:100150000000000050790108AC090020A40900202B
:100160000000000081F0004102E000BF83F0004386
:1001700030B54FEA41044FEA430594EA050F08BF42
:1001800090EA020F1FBF54EA000C55EA020C7FEA06
:10019000645C7FEA655C00F0E2804FEA5454D4EB83
:1001A0005555B8BF6D420CDD2C4480EA020281EA4D
:1001B000030382EA000083EA010180EA020281EA85
:1001C0000303362D88BF30BD11F0004F4FEA0131D7
:1001D0004FF4801C4CEA113102D0404261EB4101E6
:1001E00013F0004F4FEA03334CEA133302D052426C
:1001F00063EB430394EA050F00F0A780A4F1010428
:10020000D5F1200E0DDB02FA0EFC22FA05F2801861
:1002100041F1000103FA0EF2801843FA05F3594147
:100220000EE0A5F120050EF1200E012A03FA0EFCC6
:1002300028BF4CF0020C43FA05F3C01851EBE371F0
:1002400001F0004507D54FF0000EDCF1000C7EEB0D
:1002500000006EEB0101B1F5801F1BD3B1F5001F4B
:100260000CD349085FEA30004FEA3C0C04F101046A
:100270004FEA445212F5800F80F09A80BCF1004F93
:1002800008BF5FEA500C50F1000041EB045141EA15
:10029000050130BD5FEA4C0C404141EB010111F416
:1002A000801FA4F10104E9D191F0000F04BF0146C1
:1002B0000020B1FA81F308BF2033A3F10B03B3F19F
:1002C00020020CDA0C3208DD02F1140CC2F10C022F
:1002D00001FA0CF021FA02F10CE002F11402D8BF8D
:1002E000C2F1200C01FA02F120FA0CFCDCBF41EA59
:1002F0000C019040E41AA2BF01EB0451294330BD28
:100300006FEA04041F3C1CDA0C340EDC04F1140404
:10031000C4F1200220FA04F001FA02F340EA0300DB
:1003200021FA04F345EA030130BDC4F10C04C4F121
:10033000200220FA02F001FA04F340EA0300294601
:1003400030BD21FA04F0294630BD94F0000F83F44B
:10035000801306BF81F480110134013D4EE77FEA2E
:10036000645C18BF7FEA655C29D094EA050F08BF7A
:1003700090EA020F05D054EA000C04BF194610465B
:1003800030BD91EA030F1EBF0021002030BD5FEA9F
:10039000545C05D14000494128BF41F0004130BDC7
:1003A00014F580043CBF01F5801130BD01F000451B
:1003B00045F0FE4141F470014FF0000030BD7FEA8E
:1003C000645C1ABF194610467FEA655C1CBF0B4689
:1003D000024650EA013406BF52EA033591EA030FA0
:1003E00041F4002130BD00BF90F0000F04BF002198
:1003F000704730B54FF4806404F132044FF00005CB
:100400004FF0000150E700BF90F0000F04BF002143
:10041000704730B54FF4806404F1320410F00045A9
:1004200048BF40424FF000013EE700BF42004FEAA4
:10043000E2014FEA31014FEA02701FBF12F07F4321
:1004400093F07F4F81F06051704792F0000F14BF1E
:1004500093F07F4F704730B54FF4607401F0004562
:1004600021F0004120E700BF50EA010208BF7047B9
:1004700030B54FF000050AE050EA010208BF7047AE
:1004800030B511F0004502D5404261EB41014FF417
:10049000806404F132045FEA915C3FF4DCAE4FF01B
:1004A00003025FEADC0C18BF03325FEADC0C18BF02
:1004B000033202EBDC02C2F1200300FA03FC20FA53
:1004C00002F001FA03FE40EA0E0021FA02F11444A0
:1004D000C1E600BF70B54FF0FF0C4CF4E06C1CEAB5
:1004E00011541DBF1CEA135594EA0C0F95EA0C0F2A
:1004F00000F0DEF82C4481EA030621EA4C5123EA9D
:100500004C5350EA013518BF52EA033541F48011CB
:1005100043F4801338D0A0FB02CE4FF00005E1FB7E
:1005200002E506F00042E0FB03E54FF00006E1FBC8
:1005300003569CF0000F18BF4EF0010EA4F1FF040B
:10054000B6F5007F64F5407404D25FEA4E0E6D414B
:1005500046EB060642EAC62141EA55514FEAC5205C
:1005600040EA5E504FEACE2EB4F1FD0C88BFBCF5D8
:10057000E06F1ED8BEF1004F08BF5FEA500E50F189
:10058000000041EB045170BD06F0004646EA01014F
:1005900040EA020081EA0301B4EB5C04C2BFD4EB81
:1005A0000C0541EA045170BD41F480114FF0000E7A
:1005B000013C00F3AB8014F1360FDEBF002001F0E8
:1005C000004170BDC4F10004203C35DA0C341BDC62
:1005D00004F11404C4F1200500FA05F320FA04F034
:1005E00001FA05F240EA020001F0004221F0004168
:1005F00010EBD37021FA04F642EB06015EEA430EDB
:1006000008BF20EAD37070BDC4F10C04C4F120050A
:1006100000FA04F320FA05F001FA04F240EA0200BD
:1006200001F0004110EBD37041F100015EEA430E8E
:1006300008BF20EAD37070BDC4F1200500FA05F2AE
:100640004EEA020E20FA04F301FA05F243EA02032D
:1006500021FA04F001F0004121FA04F220EA02003C
:1006600000EBD3705EEA430E08BF20EAD37070BD82
:1006700094F0000F0FD101F00046400041EB010162
:1006800011F4801F08BF013CF7D041EA060195F044
:10069000000F18BF704703F00046520043EB0303FE
:1006A00013F4801F08BF013DF7D043EA06037047EB
:1006B00094EA0C0F0CEA135518BF95EA0C0F0CD0F6
:1006C00050EA410618BF52EA4306D1D181EA03013C
:1006D00001F000414FF0000070BD50EA410606BF36
:1006E0001046194652EA430619D094EA0C0F02D17B
:1006F00050EA013613D195EA0C0F05D152EA0336C0
:100700001CBF104619460AD181EA030101F00041DD
:1007100041F0FE4141F470014FF0000070BD41F026
:10072000FE4141F4780170BD70B54FF0FF0C4CF400
:10073000E06C1CEA11541DBF1CEA135594EA0C0F1F
:1007400095EA0C0F00F0A7F8A4EB050481EA030E6C
:1007500052EA03354FEA013100F088804FEA033353
:100760004FF0805545EA131343EA12634FEA022221
:1007700045EA111545EA10654FEA00260EF00041E2
:100780009D4208BF964244F1FD0404F5407402D234
:100790005B084FEA3202B61A65EB03055B084FEAC5
:1007A00032024FF480104FF4002CB6EB020E75EBC2
:1007B000030E22BFB61A754640EA0C005B084FEAEA
:1007C0003202B6EB020E75EB030E22BFB61A754667
:1007D00040EA5C005B084FEA3202B6EB020E75EBB2
:1007E000030E22BFB61A754640EA9C005B084FEA2A
:1007F0003202B6EB020E75EB030E22BFB61A754637
:1008000040EADC0055EA060E18D04FEA051545EA25
:1008100016754FEA06164FEAC30343EA52734FEACE
:10082000C2025FEA1C1CC0D111F4801F0BD141EA47
:1008300000014FF000004FF0004CB6E711F4801FAC
:1008400004BF01430020B4F1FD0C88BFBCF5E06F8C
:100850003FF6AFAEB5EB030C04BFB6EB020C5FEA9C
:10086000500C50F1000041EB045170BD0EF0004EF1
:100870004EEA113114EB5C04C2BFD4EB0C0541EA23
:10088000045170BD41F480114FF0000E013C90E620
:1008900045EA060E8DE60CEA135594EA0C0F08BFE4
:1008A00095EA0C0F3FF43BAF94EA0C0F0AD150EAE3
:1008B00001347FF434AF95EA0C0F7FF425AF104676
:1008C00019462CE795EA0C0F06D152EA03353FF49E
:1008D000FDAE1046194622E750EA410618BF52EA1B
:1008E00043067FF4C5AE50EA41047FF40DAF52EAEF
:1008F00043057FF4EBAE12E74FF0FF3C06E000BF8C
:100900004FF0010C02E000BF4FF0010C4DF804CD98
:100910004FEA410C7FEA6C5C4FEA430C18BF7FEA58
:100920006C5C1BD001B050EA410C0CBF52EA430C86
:1009300091EA030F02BF90EA020F0020704710F106
:10094000000F91EA030F58BF994208BF90422CBF95
:10095000D8176FEAE37040F0010070474FEA410C8E
:100960007FEA6C5C02D150EA013C07D14FEA430CAC
:100970007FEA6C5CD6D152EA033CD3D05DF8040B1D
:10098000704700BF8446104662468C46194663464F
:1009900000E000BF01B5FFF7B7FF002848BF10F126
:1009A000000F01BD4DF808EDFFF7F4FF0CBF01206B
:1009B00000205DF808FB00BF4DF808EDFFF7EAFFE7
:1009C00034BF012000205DF808FB00BF4DF808EDA2
:1009D000FFF7E0FF94BF012000205DF808FB00BF97
:1009E0004DF808EDFFF7CEFF94BF012000205DF821
:1009F00008FB00BF4DF808EDFFF7C4FF34BF01202E
:100A000000205DF808FB00BF4FEA4102B2F1E0436D
:100A100024BFB3F5001CDCF1FE5C0DD901F0004CE5
:100A20004FEAC0024CEA5070B2F1004F40EB830035
:100A300008BF20F00100704711F0804F21D113F161
:100A40003872BCBF01F00040704741F480114FEA9A
:100A50005252C2F11802C2F1200C10FA0CF320FA23
:100A600002F018BF40F001004FEAC1234FEAD32340
:100A700003FA0CFC40EA0C0023FA02F34FEA4303AA
:100A8000CCE77FEA625307D150EA01331EBF4FF033
:100A9000FE4040F44000704701F0004040F0FE404E
:100AA00040F40000704700BF80F0004002E000BF4B
:100AB00081F0004142001FBF5FEA410392EA030F49
:100AC0007FEA226C7FEA236C6AD04FEA1262D2EB93
:100AD0001363C1BFD218414048404140B8BF5B4298
:100AE000192B88BF704710F0004F40F4000020F031
:100AF0007F4018BF404211F0004F41F4000121F047
:100B00007F4118BF494292EA030F3FD0A2F1010290
:100B100041FA03FC10EB0C00C3F1200301FA03F1CE
:100B200000F0004302D5494260EB4000B0F5000FF1
:100B300013D3B0F1807F06D340084FEA310102F1B0
:100B40000102FE2A51D2B1F1004F40EBC25008BF62
:100B500020F0010040EA03007047490040EB00002C
:100B600010F4000FA2F10102EDD1B0FA80FCACF15B
:100B7000080CB2EB0C0200FA0CF0AABF00EBC2505A
:100B800052421843BCBFD0401843704792F0000F48
:100B900081F4000106BF80F400000132013BB5E79B
:100BA0004FEA41037FEA226C18BF7FEA236C21D011
:100BB00092EA030F04D092F0000F08BF0846704776
:100BC00090EA010F1CBF0020704712F07F4F04D144
:100BD000400028BF40F00040704712F100723CBF57
:100BE00000F50000704700F0004343F0FE4040F481
:100BF000000070477FEA226216BF08467FEA23633F
:100C00000146420206BF5FEA412390EA010F40F429
:100C1000800070474FF0000304E000BF10F0004375
:100C200048BF40425FEA000C08BF704743F096435C
:100C300001464FF000001CE050EA010208BF704777
:100C40004FF000030AE000BF50EA010208BF7047FE
:100C500011F0004302D5404261EB41015FEA010C13
:100C600002BF84460146002043F0B64308BFA3F10B
:100C70008053A3F50003BCFA8CF2083AA3EBC253ED
:100C800010DB01FA02FC634400FA02FCC2F120020C
:100C9000BCF1004F20FA02F243EB020008BF20F043
:100CA0000100704702F1200201FA02FCC2F12002A9
:100CB00050EA4C0021FA02F243EB020008BF20EA9E
:100CC000DC7070474FF0FF0C1CEAD0521EBF1CEACC
:100CD000D15392EA0C0F93EA0C0F6FD01A4480EABA
:100CE000010C400218BF5FEA41211ED04FF00063A3
:100CF00043EA501043EA5111A0FB01310CF00040CF
:100D0000B1F5000F3EBF490041EAD3715B0040EAF4
:100D1000010062F17F02FD2A1DD8B3F1004F40EBC4
:100D2000C25008BF20F00100704790F0000F0CF097
:100D3000004C08BF49024CEA502040EA51207F3A5B
:100D4000C2BFD2F1FF0340EAC250704740F4000036
:100D50004FF00003013A5DDC12F1190FDCBF00F027
:100D600000407047C2F10002410021FA02F1C2F1D5
:100D7000200200FA02FC5FEA310040F1000053EA71
:100D80004C0308BF20EADC70704792F0000F00F0BF
:100D9000004C02BF400010F4000F013AF9D040EAC5
:100DA0000C0093F0000F01F0004C02BF490011F459
:100DB000000F013BF9D041EA0C018FE70CEAD15357
:100DC00092EA0C0F18BF93EA0C0F0AD030F0004CD7
:100DD00018BF31F0004CD8D180EA010000F000408B
:100DE000704790F0000F17BF90F0004F084691F049
:100DF000000F91F0004F14D092EA0C0F01D1420283
:100E00000FD193EA0C0F03D14B0218BF084608D14B
:100E100080EA010000F0004040F0FE4040F4000095
:100E2000704740F0FE4040F4400070474FF0FF0C28
:100E30001CEAD0521EBF1CEAD15392EA0C0F93EA6F
:100E40000C0F69D0A2EB030280EA010C49024FEAC1
:100E5000402037D04FF0805343EA111143EA10137A
:100E60000CF000408B4238BF5B0042F17D024FF432
:100E7000000C8B4224BF5B1A40EA0C00B3EB510F0D
:100E800024BFA3EB510340EA5C00B3EB910F24BFF6
:100E9000A3EB910340EA9C00B3EBD10F24BFA3EB7B
:100EA000D10340EADC001B0118BF5FEA1C1CE0D143
:100EB000FD2A3FF650AF8B4240EBC25008BF20F0F6
:100EC000010070470CF0004C4CEA50207F32C2BF4A
:100ED000D2F1FF0340EAC250704740F400004FF0E7
:100EE0000003013A37E792F0000F00F0004C02BF18
:100EF000400010F4000F013AF9D040EA0C0093F0E2
:100F0000000F01F0004C02BF490011F4000F013B3B
:100F1000F9D041EA0C0195E70CEAD15392EA0C0FA3
:100F200008D142027FF47DAF93EA0C0F7FF470AFDB
:100F3000084676E793EA0C0F04D14B023FF44CAF1E
:100F400008466EE730F0004C18BF31F0004CCAD1B3
:100F500030F000427FF45CAF31F000437FF43CAFEF
:100F60005FE700BF4FF0FF3C06E000BF4FF0010C11
:100F700002E000BF4FF0010C4DF804CD4FEA4002F3
:100F80004FEA41037FEA226C18BF7FEA236C11D03D
:100F900001B052EA530C18BF90EA010F58BFB2EBF0
:100FA000030088BFC81738BF6FEAE17018BF40F070
:100FB000010070477FEA226C02D15FEA402C05D124
:100FC0007FEA236CE4D15FEA412CE1D05DF8040BA9
:100FD000704700BF844608466146FFE70FB5FFF73C
:100FE000C9FF002848BF10F1000F0FBD4DF808EDF4
:100FF000FFF7F4FF0CBF012000205DF808FB00BFE5
:101000004DF808EDFFF7EAFF34BF012000205DF83E
:1010100008FB00BF4DF808EDFFF7E0FF94BF01208B
:1010200000205DF808FB00BF4DF808EDFFF7D2FF88
:1010300094BF012000205DF808FB00BF4DF808EDCB
:10104000FFF7C8FF34BF012000205DF808FB00BF98
:101050004FEA4002B2F1FE4F0FD34FF09E03B3EBC5
:1010600012620DD94FEA002343F0004310F0004F05
:1010700023FA02F018BF404270474FF0000070475B
:1010800012F1610F01D1420205D110F0004008BFFA
:101090006FF0004070474FF00000704742000ED2E2
:1010A000B2F1FE4F0BD34FF09E03B3EB126209D4A3
:1010B0004FEA002343F0004323FA02F070474FF059
:1010C0000000704712F1610F01D1420202D14FF0CE
:1010D000FF3070474FF00000704700BF4FEA4102F9
:1010E00012F5001215D211D56FF47873B3EB62527A
:1010F00012D94FEAC12343F0004343EA505311F0A1
:10110000004F23FA02F018BF404270474FF0000032
:10111000704750EA013005D111F0004008BF6FF070
:10112000004070474FF00000704700BF4BB942B914
:10113000002908BF002802D04FF0FF31084600F018
:101140003BB882B0EC462DE9005000F01DF8DDF808
:1011500004E002B00CBC70472DE9F04116469846F9
:1011600004460D4600F02AF806FB01FCA6FB00230E
:1011700000FB08C7FB18A21A65EB0303069CC4E931
:101180000023BDE8F08100BF2DE9F04190460646FE
:101190000F461D4600F070F900FB05F3A0FB084563
:1011A00008FB0138069B4544341B67EB0505C3E982
:1011B0000045BDE8F08100BF704700BF00292DE960
:1011C000F00F1D46C0F29D800024002DC0F29480D7
:1011D00080460F4694461E46E3BB8A4255D9B2FA72
:1011E00082F747B1C7F1200520FA05F601FA07F1A9
:1011F000BA40B8403143170CB1FBF7F61FFA82FC36
:1012000007FB16110CFB06F5030C43EA01439D4254
:1012100008D9711E9B1880F013819D4240F2108105
:10122000023E9B18591BB1FBF7F507FB15130CFB8E
:1012300005FC80B240EA03418C4507D96B1E8A1831
:1012400080F00081944540F2FD80023D45EA064170
:10125000002503E08B420CD9002529460A462B467F
:1012600014B1524263EB430310461946BDE8F00F38
:101270007047B3FA83F5002D40F087808B4201D38D
:101280008242EAD800250121E8E712B90126B6FB1F
:10129000F2F2B2FA82F6002E39D18E1A130C1FFA2E
:1012A00082FC0125B6FBF3F703FB17610CFB07F883
:1012B0004FEA104949EA0146B04506D9791EB618E9
:1012C00002D2B04500F2D3800F46C8EB0606B6FB4B
:1012D000F3F103FB11630CFB01FC80B240EA034312
:1012E0009C4506D94E1E9A1802D2944500F2C2803F
:1012F000314641EA0741B1E7E443524263EB43031D
:1013000066E7404261EB41014FF0FF345DE7B240D8
:10131000C6F1200921FA09F720FA09F901FA06F1C4
:10132000130CB7FBF3F81FFA82FC03FB18770CFBD6
:1013300008F549EA01094FEA194141EA0747B04077
:10134000BD420AD9BF1808F1FF3680F08E80BD4239
:1013500040F28B80A8F10208BF18791BB1FBF3F5AE
:1013600003FB15170CFB05F61FFA89F949EA07413B
:101370008E4206D96F1E891871D28E426FD9023DF6
:1013800089188E1B45EA08458CE7C5F1200122FA31
:1013900001F306FA05F627FA01F207FA05F720FA33
:1013A00001F11E434FEA1649B2FBF9F81FFA86FA1B
:1013B00009FB18220AFB08FB0F433B0C43EA0242DD
:1013C00093450CFA05FC08D9921908F1FF314AD26D
:1013D000934548D9A8F102089219CBEB0203B3FB5D
:1013E000F9F109FB11320AFB01FABFB247EA0243E5
:1013F0009A4506D94A1E9B1933D29A4531D90239EA
:101400009B1941EA08410F0C1FFA8CF808FB07F6FC
:101410008AB24FEA1C4C08FB02F80CFB02620CFB80
:1014200007FC02EB1842964288BF0CF5803CCAEBE1
:1014300003030CEB124C63450ED305D000250DE7DA
:101440000E46EFE61D4601E700FA05F01FFA88F8A0
:1014500008EB0245A842F1D201390025FEE63D46DF
:101460008FE71146CDE78846B7E7B04675E7023FFC
:10147000B6182AE702393CE72DE9F007144605467D
:101480000E46002B3DD18A4249D9B2FA82F747B1C4
:10149000C7F1200120FA01F206FA07F6BC40BD4070
:1014A0001643220CB6FBF2F0A1B202FB106601FB60
:1014B00000F32F0C47EA0646B34208D9471E3619F7
:1014C00080F0FA80B34240F2F78002383619F61AFB
:1014D000B6FBF2F302FB136201FB03F1ADB245EA86
:1014E0000242914207D95E1E121980F0E7809142B4
:1014F00040F2E480023B43EA00400021BDE8F007EF
:1015000070478B4243D8B3FA83F4002C42D18B420C
:1015100002D3824200F2E18000210120EEE712B9FD
:101520000127B7FBF2F4B4FA84F2002A40F0898074
:101530000A1B230CA7B20121B2FBF3F603FB162210
:1015400007FB06F04FEA154C4CEA0242904207D9DD
:10155000121906F1FF3C02D2904200F2D08066469A
:10156000121AB2FBF3F003FB102307FB00F7ADB236
:1015700045EA03439F4207D9421E1B1980F0A08011
:101580009F4240F29D80023840EA0640B6E70021C3
:101590000846B3E7C4F1200622FA06F703FA04F37B
:1015A00021FA06F501FA04F120FA06F63B434FEA68
:1015B000134CB5FBFCF71FFA83F80CFB175508FB1F
:1015C00007F946EA010A4FEA1A4141EA0545A945E9
:1015D00002FA04F204D97E1EED18C0F0818037466D
:1015E000C9EB0501B1FBFCF60CFB161508FB06F870
:1015F0001FFA8AFA4AEA0541884503D9751EC918B7
:1016000074D32E4646EA0746370C1FFA82FC0CFBC1
:1016100007F5120CB3B20CFB03FC02FB035302FBF5
:1016200007F203EB1C439D4288BF02F58032C8EBF2
:10163000010102EB134291424CD343D030460021CA
:101640005CE79440C2F1200521FA05F620FA05F581
:1016500001FA02F1230CB6FBF3FCA7B203FB1C66F4
:1016600007FB0CF829430D0C45EA0646B04500FA85
:1016700002F508D936190CF1FF303ED2B0453CD9FD
:10168000ACF1020C3619C8EB0602B2FBF3F003FB17
:10169000102607FB00F889B241EA0642904506D9B8
:1016A000461E121927D2904525D902381219C8EBC7
:1016B000020240EA0C413FE7384608E733461AE7A2
:1016C000104661E700FA04F01FFA8CFC0CEB0343B0
:1016D0009842B3D2701E002110E7214620460DE744
:1016E000A9457FF67CAF023FED1879E7884588D998
:1016F000023EC91886E73046D9E78446C3E7023E72
:1017000012192DE71D481E49026800608A4200F048
:101710001F80002100F004B81A4B5B58435004317D
:1017200019481A4B42189A42FFF4F6AF184A00F0D3
:1017300003B8002342F8043B164B9A42FFF4F9AF7A
:1017400008F012FB0DF05CFB07F00AFBFFF7FEBF91
:10175000114E124830601248016821F0706101603A
:10176000410201600F4C182020600F490F480860AB
:101770000F48D0F800D0406800470000F04F00202C
:10178000EFBEADDE7C79010800000020A409002036
:10179000A8090020042400201810024009000000BD
:1017A00004000140140C0140000C01404434434447
:1017B00000F0FF1FFFF7FEBF07B5322106226B4680
:1017C000532001F053FA0A4B9DF800209DF80100C8
:1017D0009DF802109A70D87019709DF803209DF83A
:1017E00004009DF805105A70187159710EBD00BFA4
:1017F000C20D00202DE9F843394B002501221A7053
:101800004FF4FA662F46A946DFF8E480354CFFF71F
:10181000D3FFB8F90000FFF701FA6168FFF748F954
:101820002169FFF74FFA01464846FFF743F9814621
:10183000B8F90200FFF7F2F9A168FFF739F9616919
:10184000FFF740FA01463846FFF734F90746B8F982
:101850000400FFF7E3F9E168FFF72AF9A169FFF750
:1018600031FA01462846FFF725F9013E0546B6B292
:101870004FF47A7001F0CAFF002EC5D11A494846CC
:10188000FFF7D4FA184904463846FFF7CFFA16494D
:1018900007462846FFF7CAFA214605462046FFF7C5
:1018A00011FA394604463846FFF70CFA014620463D
:1018B000FFF700F9294604462846FFF703FA0146D8
:1018C0002046FFF7F7F8FEF7B1FD0AF03FF9FFF702
:1018D0009BF80649086002480670BDE8F88300BF1F
:1018E000D6090020941F00200000FA4400000020C8
:1018F000C20D002008B52D210822532001F078FAEE
:101900000A2001F09FFF31210922532001F070FAD3
:101910000A2001F097FF2C210E22532001F068FAD3
:10192000642001F08FFFBDE80840FFF763BF0000AF
:1019300007B5F621022201AB772001F097F9064B9B
:101940009DF804209DF805005A701870F421772046
:10195000742201F04DFA0EBD480D002007B5F621A6
:10196000032201AB772001F081F9094B9DF8042097
:101970009DF805009DF80610587019709A701A6845
:10198000F421D01118602E22772001F031FA0EBD1B
:10199000600D00200D4B0E4A188811680B1A0D4877
:1019A0000D4902880D485343B0F900200C48DB1361
:1019B0000B60D102B0F90020981891FBF0F20949B0
:1019C00009489B180A600360704700BF2E0D002075
:1019D000180D0020300D0020540D0020440D002073
:1019E0003C0D0020380D00204C0D002000000000B0
:1019F0003F4B10B518683F4AA0F57A6303FB03F12B
:101A00003D4C08133D491360B4F90020B1F9004082
:101A10003B494443B1F900105943C91201EBE42199
:101A200001EB820251008A1C9110364A1160364A3D
:101A3000B2F900205343354AB2F900205043001454
:101A400000EB63339A1C9010314B324A18601388B4
:101A500000F500405843304A304BC00B10601A6804
:101A600046F2A813511A4B432D4A002B136003DB97
:101A70005900B1FBF0F302E0B3FBF0F043001812A1
:101A8000404340F6DE325043264A27495A43001469
:101A900008601214254980180A6000F6CF6203EB33
:101AA0002210234B1860FFF7B9F82249FFF7BEF95F
:101AB000FEF7BCFC0AA3D3E9002309F0BFFE0246EF
:101AC0000B4600201C49FEF751FB07A3D3E9002376
:101AD000FEF700FDFEF798FF1849C86310BD00BF70
:101AE00000000020965BC83F0000000040A5E540D4
:101AF0004C0D00205C0D00202A0D0020200D002040
:101B0000320D0020580D0020640D00202C0D002007
:101B1000500D00203E0D0020340D0020240D00202B
:101B2000400D002043E3FFFF540D0020380D00203E
:101B30001C0D002080E6C5470000F03F541F002028
:101B40007FB50F2001F07EFEAA2116226B4677207A
:101B500001F08CF89DF800209DF80100344B3549C8
:101B60005A7018709DF803209DF802300A704B706F
:101B700031489DF804109DF80530417003709DF8C0
:101B800006209DF807102D482D4B427001709DF8DE
:101B900009209DF808001A7058702A499DF80A30EB
:101BA0009DF80B004B7008709DF80C209DF80D30CF
:101BB000254926484A700B709DF80F209DF80E109D
:101BC00002704170224B9DF8100058709DF8111062
:101BD0009DF8122019709DF813001E4B1E495A7073
:101BE00018709DF815209DF814300A704B702E2245
:101BF000F421772001F0FCF80A2001F023FEFFF722
:101C000097FE0A2001F01EFEFFF7A8FE0A2001F051
:101C100019FE1248124B0168124A196010681249E5
:101C20000860FFF7B7FEFFF7E3FE07B000BD00BF97
:101C30002A0D0020320D0020640D00203E0D0020F2
:101C4000300D00202E0D00202C0D0020200D002036
:101C5000280D0020440D00203C0D0020480D0020E0
:101C6000180D0020600D0020240D002007B5032171
:101C700006221E206B4600F0F9FF134B9DF8002052
:101C80009DF801005A709DF8032018709DF802100D
:101C90001A71B3F9002059719DF804009DF80510E0
:101CA00012F5805FD87099700BD0B3F9020010F56F
:101CB000805F06D0B3F9043013F5805018BF0120BF
:101CC00000E000200EBD00BF680D00202DE9F341AB
:101CD000792200211E208DF8041001F089F83220AD
:101CE00001F0B0FD202201211E2001F081F8142016
:101CF00001F0A8FD394B00221A605A609A600A254B
:101D00001E200221012201F073F8142001F09AFD37
:101D10009DF80400C30706D41E200921012201AB4F
:101D200000F0A4FFF4E72E4EFFF7A0FFB6F9000085
:101D3000FEF774FF294C01462A48FFF777F821681F
:101D4000FEF7B8FE20608046B6F90200FEF766FF97
:101D500001462448FFF76AF86168FEF7ABFE606051
:101D60000746B6F90400FEF759FF01461E48FFF783
:101D70005DF8A168FEF79EFE013D15F0FF050646E1
:101D8000A060BDD140461949FFF750F820F000414E
:101D9000216038461549FFF749F8144920F00043FF
:101DA00030466360FFF742F820F000422946A26007
:101DB0001E20782201F01CF8142001F043FD0221BE
:101DC0002A461E2001F014F8142001F03BFDFFF715
:101DD0004DFF142001F036FDBDE8FC81700D0020A0
:101DE000680D0020CD0C9E446726934400002041DE
:101DF00007B51B2108226B46682000F037FF0D4B0A
:101E00009DF800209DF801000B495A7018709DF84C
:101E100003209DF802309DF804004B700A70C870D2
:101E20009DF805309DF806209DF807008B704A71DB
:101E300008710EBDAC0D0020DA0D002070B5154BF9
:101E4000154CB3F90000154D00F54E501030FEF75B
:101E5000E5FE1349FEF7EAFF1249FEF72BFE124991
:101E600006460860616BFEF72DFF216CFEF722FE2F
:101E7000A16B28603046FEF725FF616CFEF71AFE65
:101E8000E16B68603046FEF71DFFA16CFEF712FEA5
:101E9000A86070BDAC0D0020941F0020B00D002084
:101EA00000008C4300000C42A80D00202DE9F843EF
:101EB000274B002401221A704FF4FA652746A146E9
:101EC000DFF89C80234EFFF793FFFFF7B7FFB8F9C9
:101ED0000000FEF7A3FE3168FEF7EAFD0146484622
:101EE000FEF7E8FD8146B8F90200FEF797FE71683B
:101EF000FEF7DEFD01463846FEF7DCFD0746B8F981
:101F00000400FEF78BFEB168FEF7D2FD01462046C5
:101F1000FEF7D0FD013D0446ADB24FF47A7001F0FA
:101F200075FC002DCCD10C494846FEF77FFF0B4EC7
:101F3000094930603846FEF779FF0749706020464E
:101F4000FEF774FFB06002480570BDE8F88300BF7B
:101F5000D5090020B00D00200000FA44C80D002073
:101F6000DA0D002008B53E218022682000F040FFF5
:101F70003E210022682000F03BFF16211822682035
:101F800000F036FF15210722682000F031FF1721ED
:101F90000022682000F02CFF642001F053FCBDE813
:101FA0000840FFF783BF00001FB53B210E226B46A0
:101FB000682000F05BFE174B9DF800209DF80100A3
:101FC0009DF802105A701870D9709DF803209DF882
:101FD00004009DF805109A70587119719DF806203B
:101FE0000D4B9DF807000D495A7018709DF8092097
:101FF0009DF808309DF80A004B700A70C8709DF873
:102000000B309DF80C209DF80D008B704A71087103
:1020100005B000BDC20D0020AC0D0020DA0D00207F
:1020200070B5204B204CB3F90000FEF7F7FD1F49B7
:10203000FEF7FCFE1E49FEF73DFD1E490546086001
:10204000E169FEF73FFEA16AFEF734FD1A4E216AF0
:1020500030602846FEF736FEE16AFEF72BFD616A26
:1020600070602846FEF72EFE216BFEF723FD616BA4
:10207000B0602846FEF726FE216CFEF71BFD0F4ED2
:10208000A16B30602846FEF71DFE616CFEF712FD65
:10209000E16B70602846FEF715FEA16CFEF70AFDA5
:1020A000B06070BDAC0D0020941F00200000AA435A
:1020B00000000C42A80D0020C8090020B00D00202F
:1020C0002DE9F043002200238DB0CDE90023CDE9B6
:1020D0000223CDE90423CDE90623CDE90823CDE988
:1020E0000A236B4B01221A7041F28834694E6A4D03
:1020F000FFF75AFFFFF794FFB6F90000FEF78EFDD9
:102100002968FEF7D5FCFEF791F902460B46DDE99A
:102110000001FEF72DF8CDE90001B6F90200FEF747
:102120007DFD6968FEF7C4FCFEF780F902460B46A8
:10213000DDE90201FEF71CF8CDE90201B6F9040061
:10214000FEF76CFDA968FEF7B3FCFEF76FF90246D7
:102150000B46DDE90401FEF70BF8504F504ECDE978
:102160000401B7F90000FEF759FD3168FEF7A0FC45
:10217000FEF75CF902460B46DDE90601FDF7F8FFC4
:10218000CDE90601B7F90200FEF748FD7168FEF7D8
:102190008FFCFEF74BF902460B46DDE90801FDF71F
:1021A000E7FFCDE90801B7F90400FEF737FDB16894
:1021B000FEF77EFCFEF73AF902460B46DDE90A011E
:1021C000FDF7D6FF013CCDE90A01A4B24FF47A70C5
:1021D00001F01CFB002C89D1324D00A80719D7E96A
:1021E000000127A3D3E90023FEF79EFA26A3D3E933
:1021F0000023FEF76FF9C7E900010CA90A1952E99B
:1022000006011FA3D3E90023FEF78EFAFEF7FCFBBD
:102210000834182C45F8040FDFD1DDE9000102462F
:102220000B46FEF757F9DDE90289DDE9046704464C
:102230000D4642464B4640464946FEF74BF902469C
:102240000B4620462946FDF793FF324604460D46CD
:102250003B4630463946FEF73DF90B4602462946D5
:102260002046FDF785FF09F071FCFEF7CDFB0E4B14
:1022700007491860002008700DB0BDE8F08300BF6A
:10228000000000000088B340000000E0EA9C533FDB
:10229000D5090020C20D0020C8090020DA0D002059
:1022A000B00D0020C40D002000000020AFF300801E
:1022B00008B56B218022682000F09AFD962001F07D
:1022C000C1FA6B210322682000F092FD6C210022EC
:1022D000682000F08DFD19210022682000F088FDA3
:1022E0000B4B1A2193F86C20682000F081FD1C2113
:1022F0000822682000F07CFD1B210822682000F0E5
:1023000077FD642001F09EFABDE80840FFF7D8BED3
:10231000941F002007B50021032201AB772000F0B5
:10232000A5FC084B9DF804209DF805009DF80610BB
:102330009A70587019707720FF21482200F058FDDC
:102340000EBD00BFA00D002007B50021032201AB88
:10235000772000F08BFC084B9DF804209DF80500C9
:102360009DF806109A70587019707720FF21582236
:1023700000F03EFD0EBD00BF840D0020094B0A4950
:102380001A880B68094910021A1A09480B8802605A
:1023900082FB0323D20D42EA4320064B00F5FA618B
:1023A00019607047900D00208C0D00207C0D0020DE
:1023B000800D0020940D00202DE9F8434849494B39
:1023C0000E681888484A86FB00011488C50945EA4A
:1023D0004160CB114FEA04484449454C0A8825889E
:1023E00018EB00084FF0000949EB0309E80386FBEE
:1023F0000245230A43EA05622C123E4D0021D5F81E
:1024000000E0801841EB0401BEF5FA6F31DA764343
:102410004FEAE67CAEF5FA667643F3179A00B4000D
:10242000A41942EA967545EB0305A3086F104FEA1D
:10243000340643EA8572AB102F4DAE450EDA0EF22C
:10244000DC5464430725C5FB04670B2584FB054565
:102450006D104FEA3404121943EB0503254CCCEB05
:102460000E052560B8EB060869EB0709801A61EBD9
:102470000301224A1368A3FB004503FB0155610DCC
:1024800041EAC5226B15B2EB080863EB09094FEA74
:10249000D83040EA4940FEF7C1FB1949FEF7C6FCB7
:1024A000FDF7C4FF0AA3D3E9002309F0C7F90246E8
:1024B0000B4600201349FDF759FE07A3D3E900237B
:1024C000FEF708F8FEF7A0FA0F4AD063BDE8F883DC
:1024D000000000C0955BC83F0000000040A5E5403B
:1024E000800D00207E0D0020880D0020A40D00200E
:1024F0009C0D0020940D002024FAFFFF980D002071
:1025000080E6C5470000F03F541F0020AFF3008075
:1025100007B5FF211E22772000F06AFC0A2001F097
:1025200091F9A221022201AB772000F09FFB9DF8D8
:1025300004209DF80500314BA4215A701870022226
:1025400001AB772000F092FB9DF804309DF8052048
:102550002B4977204B700A7001ABA621022200F0B4
:1025600085FB9DF804109DF8053026480222417035
:102570000370A82101AB772000F078FB9DF80420C0
:102580009DF80510204801AB427001700222AA217B
:10259000772000F06BFB9DF804009DF805201B4B95
:1025A000AC2158701A707720022201AB00F05EFB5C
:1025B0009DF804309DF80500154958224B700870AD
:1025C000FF21772000F014FC0A2001F03BF9FFF70F
:1025D000A1FE0A2001F036F9FFF7B6FE0A2001F04D
:1025E00031F90C4A0C4B11680C48196002680C490F
:1025F0000A60FFF7C3FEFFF7DFFE0EBD9C0D002053
:10260000880D0020A40D00207E0D0020900D0020DC
:102610007C0D0020840D0020980D0020A00D0020CE
:102620008C0D0020F0B593B00025102301A90227DE
:102630003948ADF804308DF806708DF8075008F071
:1026400049FB364808F006FA3548364907900891A4
:1026500020204FF4005104244FF4806380224FF473
:1026600080760F9010912D4807A90E930C920D962D
:1026700009950A940B95119508F064FA01212748F1
:1026800008F080FA4FF4004008F08CFC01264FF46B
:102690006022254802A9049202958DF80C608DF8FD
:1026A0000D6005958DF8184008F036F91E48214652
:1026B0003246052308F081F91B4821463A46052396
:1026C00008F07BF9184821460322052308F075F924
:1026D000224605231448214608F06FF91248314676
:1026E00008F047F91048314608F03AF90E4808F06A
:1026F00049F90D4808F04BF90028FAD10A4808F0CA
:102700004AF9094808F04CF90028FAD10648012195
:1027100008F04AF913B0F0BD00080140080002407B
:102720004C240140D80900200024014008B5084B82
:1027300058881A8881189888DB880A18D11888B2B6
:10274000FEF768FA4FF07A51FEF7BCFA08BD00BFF9
:10275000D8090020884206D250F8042B92FAA2F23F
:10276000014B1A60F6E770470030024070B506462C
:102770000D4640200121094C08F06CFC0123A360A8
:1027800000BF00BF00BF00BF30462946FFF7E2FF91
:10279000206890FAA0F1C84370BD00BF003002402D
:1027A000F7B5144F0121144808F0F2FA134C032333
:1027B0004FF480561025384601A98DF80630ADF843
:1027C00004608DF8075008F085FA1820ADF8040071
:1027D00001A9204608F07EFA3846314608F0D0FAC2
:1027E0002046082108F0CCFA2046294608F0C8FA0D
:1027F000FEBD00BF0008014000023000000C014097
:102800002DE9F74F974CA38A98B210F0010237D008
:10281000208820F400610B041A0C2280204601213C
:1028200008F09EFB904B91491A7800200870CAB1BD
:102830008F48017819B98F4B1A78FF2A12D10122DB
:1028400002708D480178022905D1864B1A8890B212
:1028500040F400611980894B82481978012208F000
:1028600099FB38E18548002201787E4808F092FB08
:1028700080490B78FF2B00F02E81FF207B4BEFE08F
:1028800000F00201C9B200294DD0BFF35F8F7A4D2D
:102890002E78012E35461AD1734B1978B9B1744888
:1028A0000378A3B12046114608F05AFBBFF35F8FAF
:1028B000218B2046CBB231468DF8073008F044FB1F
:1028C0006F4A204616704FF48061324618E0654C1E
:1028D000228BD1B28DF80710BFF35F8F6648037863
:1028E000022B10D1604A117869B1614B1A7852B14C
:1028F0002046002108F034FB20464FF4806100227E
:1029000008F03AFBE7E00078032807D156490B7836
:1029100023B1574A107808B15248EEE751484FF4B6
:1029200080610122ECE700F00406F6B2002E72D0BE
:102930004D4BDFF84C811A78012688F800604C482E
:10294000002A4ED00378002B4BD04B4D20462F78D9
:10295000464D022F4B4F29D908F002FB204695F82F
:102960000090D7F800A008F012FB4FFA89FB0AF894
:102970000B0009EB060031462870204608F0E4FA07
:10298000204688F800603F6895F8008008F0FFFA5C
:102990004FFA88F907F80900B04420464FF48061E7
:1029A000324685F8008008F0E7FA2CE0314608F05E
:1029B000CBFA20462E78D7F8008008F0E8FA4FFAD4
:1029C00086F9721C08F80900D1B220464FFA81F846
:1029D0003F68297008F0DBFA033607F808002E700C
:1029E00011E0027801211F4812B9274B1A782AB149
:1029F00008F0AAFA1D480378591C03E008F098FA79
:102A00001B4801210170174B1A8802F4807188B2AB
:102A10000028F8D15FE010F04001144D36D0194B7A
:102A200020462F78D3F8008008F0B1FA7A1CD1B292
:102A30004FFA87F92970104D08F8090028784FB22D
:102A40000337B84205D120464FF48061324608F082
:102A500093FA064B28781A7851B288423BD1501C21
:102A6000187038E000580040EB090020EA09002007
:102A7000E0090020E2090020E3090020F20900201B
:102A8000F0090020E4090020E1090020030622D516
:102A90002B785AB2501C0ED01B49013308682B709A
:102AA000815C204608F071FA184A95F90000117807
:102AB000814210D130E7164829700178204608F08D
:102AC00064FA14490B78002B7FF426AF0F4A107874
:102AD00000283FF421AF0D4A0F49107891F90020EA
:102AE000431C9A420DD10D490D480B78002202700B
:102AF00023B10C484FF4407108F03EFA0A48002216
:102B00000270BDE8FE8F00BFEC090020E309002041
:102B1000E2090020EB090020EA090020F00900206A
:102B2000E009002000580040F109002030B51420D1
:102B300087B04FF4406403238DF8070001A948488B
:102B4000ADF804408DF8063008F0C4F8214644483A
:102B500008F016F9082442484FF4806108F00AF999
:102B600018B9032000F052FEF5E74FF480613C48AD
:102B700008F008F9032000F049FE4FF4806138485E
:102B800008F0FEF8032000F041FE611E11F0FF0482
:102B9000E1D14FF40061324808F0F4F8032000F06E
:102BA00035FE4FF480612E4808F0ECF8032000F069
:102BB0002DFE4FF480612A4808F0E2F8032000F06F
:102BC00025FE4FF40061264808F0DAF8032000F0F3
:102BD0001DFE03251C234FF4406201A920488DF8F7
:102BE0000730ADF804208DF8065008F073F81D4842
:102BF00008F000F902A808F081F9224619484FF4BC
:102C0000407108F0B9F9184A4BF6FF704FF4804153
:102C1000ADF80E00ADF81410124802A90292ADF8FA
:102C20000C4008F001F901210E4808F075F9012067
:102C300022238DF8030068468DF800308DF801409E
:102C40008DF8024007F034FE2121684625468DF8B4
:102C500000108DF8014007F02BFE07B030BD00BF1B
:102C6000000C014000580040801A060010B54000DA
:102C7000214CC0B220702148017021490020087009
:102C80002048012101702048036020480360204B48
:102C90001A70204A11702049888800F400739AB293
:102CA000A2B9098801F4807083B24BB91A4802882E
:102CB00002F400718BB2002BF8D1012108F038F931
:102CC00015484FF44071012208F056F947F230518F
:102CD0001048027812B10139FAD100E049B90F4B1E
:102CE0001888421C91B20C481980FFF71FFF002082
:102CF00010BD012010BD00BFF2090020E209002034
:102D0000E1090020EB090020E4090020EC09002083
:102D1000E3090020F109002000580040E8090020E4
:102D200030B54000284CC5B228482570284D294CA4
:102D3000017001210020297085B02070264C0DEB18
:102D400000052560254C102A2560254C2270254C55
:102D5000217036D8C1B2914204D2195C0DF800102E
:102D60000130F7E7204B9A8802F4007081B2A1B9D4
:102D70001B8803F4807290B248B91B48018801F4A3
:102D800000739AB2002AF8D1012108F0D1F8164850
:102D90004FF44071012208F0EFF847F23053114828
:102DA000017811B1013BFAD100E04BB90F4802881C
:102DB000511C8BB203800C48FFF7B8FE002000E0E6
:102DC000012005B030BD00BFF2090020E20900205B
:102DD000E1090020EB090020EC090020E4090020B3
:102DE000E3090020F109002000580040E809002014
:102DF00007B502AB03F8012D0122FFF791FF0EBDCD
:102E000037B5244CA38A98B20090009B009911F426
:102E1000E06F33D0228B204693B24FF480610022C2
:102E2000019308F0A9F80098820527D4218801F4BD
:102E3000007293B213BB258805F4807085B29DB1F2
:102E40001448018801F4807293B2002BF8D101215B
:102E500008F07AF80F48018801F4007293B2002B51
:102E6000F8D1FFF763FE09E02046012108F06CF875
:102E700020464FF440712A4608F07EF80548818AC2
:102E800021F470621304190C034A8182002010702F
:102E90003EBD00BF00580040F109002070B5002081
:102EA00088B02A4A431C40F6B83122F81010D8B234
:102EB0000728F6D9264C28210125032220708DF8F9
:102EC00003102448694600248DF80220ADF8005014
:102ED00007F000FF1C2301A88DF804308DF8054091
:102EE0008DF806508DF8075007F0E2FC23204FF6CE
:102EF000FF72ADF8140005A94FF08040ADF818201E
:102F0000ADF81640ADF81A408DF81C4008F04AF9AB
:102F100002A94FF08040ADF80840ADF80A40ADF886
:102F20000C50ADF80E40ADF8104008F0D7FA022171
:102F30004FF080402A4608F097FA4FF0804029462B
:102F40002E4608F077FA08B070BD00BFE20D0020F1
:102F5000E00D002000080140014B33F810007047DD
:102F6000E20D0020F0B5182089B003214FF4106362
:102F70008DF803008DF802103A4869463A4DADF8D5
:102F8000003007F0A7FE4FF4707238486946ADF87C
:102F90000020374E07F09EFEB5F88A40232096FBAE
:102FA000F4F77B1E0024ADF8040001A93148ADF808
:102FB0000830ADF80A40ADF806408DF80C4008F036
:102FC000F1F802204FF4807170224FF4FA63012768
:102FD000ADF81800ADF81C10264804A9ADF8102073
:102FE000ADF81630ADF81270ADF81440ADF81A40D7
:102FF000ADF81E4008F020F91E4804A908F060F959
:103000001C4804A908F0A0F91A4804A908F0DEF940
:103010001848394608F00EFA95F8A42062B9B5F8B8
:10302000AC30D5F8B40096FBF3F6013EADF808607D
:10303000FEF734F8ADF8160001A90F4808F0B2F811
:1030400004A90D4808F0F8F804A90B4808F0BEF9E7
:103050000121094808F0FAF90748012108F0EAF9C6
:1030600009B0F0BD00080140941F0020000C014091
:1030700080841E0000080040002C0140024B53F8E1
:1030800020000180704700BFB43C0108024B53F898
:1030900020000180704700BFCC3C010838B5234BAD
:1030A0004FF0804093F88010012908D108F0B5FA5C
:1030B0001F484278002A37D0511E417038BD022186
:1030C00008F0AFFA012804460AD11A4D1A482A8896
:1030D00002804FF0804008F09DFA184928800C705B
:1030E00002214FF0804008F0A7FA124B12481A88CC
:1030F0000188531A9BB241F218529342104A02D9E6
:103100000023137038BDA3F2DD5080B240F6B63113
:10311000884205D81278072A9CBF0A4921F8123044
:10312000074B1878411C197038BD00BF941F002050
:103130002C000020F8090020F4090020FA090020E2
:10314000F6090020E20D002048F20100002105F000
:1031500019BA48F20300002105F014BAF0B5284B63
:1031600028491878284A0726284C464328480D78CD
:1031700011880022237804781046B04228DA2549C5
:1031800001EB4003998915B1012D1DD109E0C1F36F
:1031900083230B2B02D90F2B12D116E04FEA815C4F
:1031A00005E0C1F3C3230B2BF5D84FEA415C4FEA8E
:1031B0005C5707F5FA6C184F013227F813C0D2B2EA
:1031C0009C4238BF1C4600E00F230130C0B2D4E758
:1031D0000D4D944229800D490B70104B0C491A700B
:1031E0000F4B0C7018700F4807DA0F4B012101705C
:1031F0001868BDE8F04007F045BB00220270F0BD42
:10320000FE090020FB090020FC0D0020220E0020FA
:10321000FF0900202C000020060E0020040E0020D4
:10322000E00D0020FA090020F40D0020024B0022DE
:103230009A72FFF793BF00BF2C00002038B50C46F0
:1032400049782378D1F1010138BF0021012B0D46C7
:1032500002D0A37883B941B9002046212070617063
:10326000A070E0702071A07138BD02B10002208111
:103270000123A370032321E019B101222270462308
:103280001CE0012B11D12E4B32B1218942182D485F
:1032900022810178197006E02B4AC0F3001100F07A
:1032A0000300117018700223E3E7022B08D1E278C3
:1032B00060710AB9C109A1710323A370637038BD9D
:1032C000032B10D102256370A172E378A179A57058
:1032D000072505FB0131657904EB410140EA052032
:1032E00001338881E370E17806291ED92079431CD7
:1032F0001348D9B203782171994203D101210020EA
:10330000A17220713AB91049104A08780D4910701D
:103310000B700F4A00E00F4A106807F0B3FA002361
:103320004620A370E370A37160700B4A917A11B9C3
:103330000A4B987A18B1BDE83840FFF777BF38BD1F
:10334000FC090020FE090020FD090020FB090020E7
:10335000F80D0020000E00202C00002004000020AA
:10336000134A08B5938903F0800081B251B11388E4
:1033700003F0800081B229B1938923F08000010419
:103380000B0C938192890A4802F020018BB26BB139
:10339000028802F020018BB243B108F0D8F9054948
:1033A000C0B20022BDE80840FFF748BF08BD00BF1B
:1033B000004400402C000020134A08B5938903F014
:1033C000800081B251B1138803F0800081B229B12D
:1033D000938923F0800001040B0C938192890A48A1
:1033E00002F020018BB26BB1028802F020018BB297
:1033F00043B108F0ACF90549C0B20122BDE808406C
:10340000FFF71CBF08BD00BF0038014004000020CA
:1034100070B53E488AB001243D4B00251C21022690
:10342000047002A81C708DF808108DF809608DF8E2
:103430000A508DF80B4007F03BFA10204723632217
:10344000ADF80E0003A94FF08040ADF80C30ADF898
:103450001020ADF812508DF8145007F0A3FE22464C
:1034600021464FF0804007F0FFFF21464FF080409B
:1034700008F0D3F821464FF0804007F0DBFF26210B
:103480008DF8096002A808268DF808108DF80A50FA
:103490008DF80B4007F00CFAADF804600426032207
:1034A0000DEB06011B488DF806208DF8076007F02C
:1034B00011FCADF81C50ADF81E50ADF82050ADF821
:1034C0002450154D4FF4E133284606A90693ADF874
:1034D000226008F0B5F82246284640F2255108F04F
:1034E00013F92846214608F003F923464FF47A7170
:1034F0000A4A0B4807F080F94FF47A71094A2346CB
:10350000094807F079F90AB070BD00BF0400002037
:103510002C00002000080140004400404931000810
:10352000F80D002053310008F40D0020014B33F852
:1035300010007047060E002037B5482301240325EC
:103540001B4801A98DF80730ADF804408DF80650EE
:1035500007F0C0FB1648214607F00CFCA04225D01E
:10356000102008248DF8070001A91148ADF8044087
:103570008DF8065007F0AEFB21460D4807F000FC21
:103580003C2000F05FF905240821094807F0FAFB08
:10359000782000F03BF90821054807F0F1FB78207E
:1035A00000F034F9611E11F0FF04EDD13EBD00BF03
:1035B0000008014010B50A4A52E8003F09490A488C
:1035C0000C68006842E800310029F4D1074A201A4B
:1035D0001168B0FBF1F24FF47A7101FB032010BDCA
:1035E000040A0020041000E0100A00200C0A002049
:1035F000F8B55F4B5F481A685F4902600B685A1C58
:103600000A6007F019F95D480278012A40F0AF809E
:103610005B490B78002B40F0AA805A4801780029BA
:1036200040F0A580584B1878002840F0A0805749FA
:103630000B78002B40F09B8055480178002940F022
:103640009680544D2B88581C81B2B1F57A7F94BF77
:1036500029802A80FFF7AEFF4F4B05461A681D6090
:103660004C4B801A1A884D49D30708601DD44C4B27
:1036700001205A784B498242087002D1FEF794FC2F
:1036800003E0FEF799F8FEF7B3FB474B47485A882B
:10369000198842809B88464A01808380118845486A
:1036A000538892880180438082803A480A230288A6
:1036B000B2FBF3F103FB112082B2DAB9384F3E4C72
:1036C0000126BF7826703D4CB742237809D11BB93B
:1036D000FEF720FE27700DE0FEF736FE3848077033
:1036E00008E01BB9FEF724F9267003E0FEF736F96F
:1036F00033490E70274A14201388B3FBF0F100FB06
:10370000113290B210B92F4A012111700133642097
:1037100093FBF0F100FB11321AB9FEF7A7FA2A4B1E
:1037200018701C4864220388B3FBF2F102FB1130CD
:1037300082B212B9254801210170C822B3FBF2F10F
:1037400002FB113082B212B92148012101704FF4FD
:103750007A72B3FBF2F102FB113398B210B91D4932
:1037600001220A70FFF726FF1B4B401B1860F8BDB3
:10377000041000E0100A0020040A0020000A0020C3
:10378000290A0020D60900202A0A00202B0A00203E
:10379000D5090020160A0020580E0020340E002003
:1037A000941F0020010A0020C20D0020D40D00202B
:1037B000DA0D0020BC0D0020090A0020D4090020E9
:1037C000D7090020030A0020C5090020150A00209F
:1037D000140A0020080A0020240E0020014B18685B
:1037E000704700BF040A002008B5074B596A11F062
:1037F000E05F0CBF4FF480400120090E04F0C2FED0
:10380000BDE8084007F056BC0010024010B50B4B55
:103810001A680023094909688A1AD318084A1468E3
:10382000B3FBF4F4844207D21268001BB3FBF2F43A
:1038300002FB14330A46EDE710BD00BF041000E0A0
:103840000C0A002010B504462CB14FF47A70FFF733
:10385000DDFF013CF8E710BD30B587B001A807F0E7
:10386000ABFB019B8A4A8B49B3FBF2F08A4C0860A0
:10387000E5688A4B45F08072E2601868884C40F039
:103880000101196025684FF47A72B5FBF2F3581EF6
:10389000B0F1807F09D2834C834DF02100220723B1
:1038A000606085F82310A260236001214FF400704E
:1038B00007F0DCFB0120014607F0CCFB02200121D0
:1038C00007F0C8FB0420012107F0D0FB08200121EC
:1038D00007F0CCFB1020012107F0C8FB01200146B6
:1038E00007F0C4FB01214FF4800007F0CBFB01215E
:1038F0004FF4006007F0BAFB0120014607F0C2FB5D
:103900000220012107F0BEFB0420012107F0BAFBD1
:1039100001214FF4804007F0A9FB01214FF4003052
:1039200007F0B0FB002004F067FC04F0AFFB5F4839
:1039300090F88040012C01D1FFF7FEFDFFF754FF06
:103940004FF4A06006F0AAFF594D05F027FF594932
:10395000594C2960594A5A485A49226008605A4AC3
:103960005A485B4D5B4B5C4910604FF4E1300B6093
:103970002B6000F031F9FEF713FFFEF753FE08212C
:10398000564807F0FFF942F21070FFF75BFF2B6813
:10399000534898472A6853485349904753482468E6
:1039A000016811F4003F14BF51485248A04701A8D4
:1039B00007F002FB364C059A2B68B2FBF4F14E4837
:1039C000984702992B68B1FBF4F14C489847039B48
:1039D0002A68B3FBF4F14A48904704992A68B1FB7E
:1039E000F4F148489047019A2B68B2FBF4F146483D
:1039F00098472E48304944780B68012C04460CBF88
:103A0000424843489847A2782B48012A04680CBFD3
:103A100040484148A0472549274B91F880201C6821
:103A20000AB93E4800E03E48A04742F21070FFF756
:103A300009FF1021294807F0A5F904F00BF91B48EC
:103A400090F880100446012902D1FFF7E1FC01E063
:103A5000FFF724FA3348FFF769F804F017FE06F081
:103A6000E3F86278012A02D1FEF722FC03E0FDF7B9
:103A700041FFFEF777FAFEF729F90C4B98780128F9
:103A800002D1FEF745FD01E0FEF75AF807B030BD60
:103A900040420F000C0A0020F0ED00E0001000E0B2
:103AA0001401002010E000E000ED00E0941F002071
:103AB0008C1E0020193D0008801E0020753D000866
:103AC000353D0008881E0020F0230020053E000838
:103AD000841E0020873D00084C1F0020000C014080
:103AE000DC3C01082D3D0108673D01080010024043
:103AF0006B3D01088F3D0108BA3D0108CD3D01082D
:103B0000DF3D0108F13D0108033E01084D5F01085A
:103B1000C25F0108D8610108EC610108163E010886
:103B20002F3E01080058004010B1034A034B1A60B1
:103B300003480449C8607047EFBEADDEF04F002077
:103B40000400FA0500ED00E010B5144B18780128C8
:103B500022D0134A134B1068196888421CD01C6885
:103B6000114812492418CC6014681868844205D999
:103B700014681868201A4860116804E01A68C2F5D1
:103B800000604860002119600848044B0121197049
:103B9000BDE8104006F0F6BF10BD00BF200A0020AF
:103BA000180A0020240A0020801600204400024049
:103BB00008B54FF4005006F0FBFF0548002106F061
:103BC000E1FF044B00221A70BDE80840FFF7BCBFBC
:103BD00044000240200A00202DE9F043474C93B0F6
:103BE0000646182103204FF400738DF806008DF867
:103BF0000710204601A9ADF80430482507F06AF8FF
:103C00004FF4806201A92046ADF804208DF80750DA
:103C10000E2707F05FF8012502A88DF808708DF8CF
:103C200009508DF80A508DF80B5006F041FE0396AE
:103C3000334E0C23334F00240DEB03013046ADF817
:103C40001630ADF81040ADF81240ADF81440ADF8A4
:103C5000184007F0F5FC384606F0FCFE2A49DFF86C
:103C6000B4904FF4805020234FF080084FF400624E
:103C700010900891384607A90F930A921194CDF835
:103C80001C9009940B940D94CDF830800E9406F09E
:103C900059FF3846294606F075FF2A46402130462E
:103CA00007F04CFD384606F080FF1849143F0860C5
:103CB000384606F0CFFE1020099007A93846CDF807
:103CC0001C900B940D94CDF830800E940F9406F058
:103CD00039FF384602212A4606F05FFF304641464A
:103CE0002A467C6007F02AFD3046294607F000FD91
:103CF000074804F063FC13B0BDE8F08300080140FE
:103D00000038014058000240800E00201C0A0020AC
:103D1000B13D00080438014008B5044806F045FFED
:103D2000034B1968401A18BF012008BD5800024013
:103D30001C0A0020054B06481A68C2F50061013ACA
:103D400008BF4FF40062405C1A6070471C0A0020F4
:103D5000800E0020054B06491A6888541868421CDA
:103D60005105480D1860FFF7EFBE00BF180A00208C
:103D70008016002010B5441E14F8010F10B1FFF793
:103D8000E9FFF9E710BD0FB400B5C3B044AB53F879
:103D9000042B02A84FF4807101930BF069FA02A87A
:103DA000FFF7E8FF43B05DF804EB04B07047000094
:103DB000F0B585B004AB03E90300BDF80C603046F4
:103DC00004F04AFC07460298FCF724FFFCF72EFBA0
:103DD00000220A4BFCF7A8FC044630460D4604F0CE
:103DE00043FC0090BDF80E0039460190224604487D
:103DF0002B46FFF7C8FF05B0F0BD00BF00408F4065
:103E0000573E010870B500239AB28A420BD2084A85
:103E1000C65C1468074D01332E55146801346405DF
:103E2000640D1460F0E7BDE87040FFF78DBE00BF81
:103E3000180A002080160020F8B5002506460F4617
:103E40002C460F4B1868804728B90A200135FFF728
:103E5000F9FCEDB206E00B4900250A6890473055A1
:103E60000134E4B224B1331913F8010C3B2803D018
:103E7000042D01D8BC42E4D3002131553046F8BDB1
:103E80008C1E0020881E002030B5002585B001A8BA
:103E90002946092200950BF0ABF82C46174B186801
:103EA000804730B90A20FFF7CDFC681CC5B2C4B109
:103EB0000DE0134904AD0A6890472B19013414F042
:103EC000FF0403F8100C01D12546E7E7002504A9FB
:103ED0000A1912F8113C3B2B05D0042D03D80B2CEA
:103EE00000E0042DDAD904A804190021684604F87A
:103EF000101C06F051FB05B030BD00BF8C1E002029
:103F0000881E002038B50B4B1C2505FB0035FFF73C
:103F1000BBFF6860FFF7B8FFA860FFF7B5FFE86078
:103F2000FFF7B2FF0021286100202C1D6861A86105
:103F3000297738BDAC200020F0B5A14D8BB000230F
:103F400008938DF8243028688047002839D09D498F
:103F50000C78002C35D19C4A136898479B4908700F
:103F60000A78232A2DD12868002800F0D084052162
:103F700008A8FFF761FF9DF82030232B21D19DF881
:103F8000211023291DD19DF82220232A19D19DF823
:103F90002330232B15D18E4B93F818222AB90121F7
:103FA00083F81812A3F8162201E083F818429DF84E
:103FB0002430572B05D1874802688748904704F082
:103FC000B3F8804B824A0021197092F81812002928
:103FD00040F09E847D4C2378232B00F09984227836
:103FE0003F3A3B2A00F29484DFE812F0FE03920489
:103FF0002D0334033B0344034B0352039204920406
:104000005B0392049204640392046D0370037303D0
:10401000920476037F03D803DB03DE03EF03F6038A
:10402000FB03FB0392049204920492049204920410
:104030003C0093000601230146015B0172017401FB
:104040008B01A601B301D201E8019204EA01F40157
:10405000F6030B028802BF02D602F2029204F803B2
:1040600017031A035A4E5D4FD6F81C01FCF7DEF910
:104070000446D6F820010D46FCF7D8F9CDE9000139
:10408000D6F82401FCF7D2F9CDE90201D6F82801CF
:10409000FCF7CCF9CDE9040122462B46396850489B
:1040A0008847D6F83801FCF7C1F90446D6F83C0138
:1040B0000D46FCF7BBF9CDE90001D6F84001FCF74D
:1040C000B5F9CDE90201D6F84401FCF7AFF9CDE925
:1040D000040122462B46396842488847D6F85401E5
:1040E000FCF7A4F90446D6F858010D46FCF79EF9F2
:1040F000CDE90001D6F85C01FCF798F9CDE90201A1
:10410000D6F86001FCF792F9CDE904013968364828
:10411000ABE02F4E314FD6F87001FCF787F904461B
:10412000D6F874010D46FCF781F9CDE90001D6F807
:104130007801FCF77BF9CDE90201D6F87C01FCF7A8
:1041400075F9CDE9040122462B463968274888478E
:10415000D6F88C01FCF76AF90446D6F890010D46B2
:10416000FCF764F9CDE90001D6F89401FCF75EF99B
:10417000CDE90201D6F89801FCF758F9CDE9040120
:1041800022462B4639681A488847D6F8A801FCF71A
:104190004DF90446D6F8AC010D46FCF747F9CDE9D8
:1041A0000001D6F8B001FCF741F9CDE90201D6F8DB
:1041B000B401FCF73BF9CDE9040139680D4854E03E
:1041C0008C1E0020280A0020881E00205400002099
:1041D000941F0020801E00207C3E0108841E0020C9
:1041E0009C3E0108C93E0108F53E0108213F010837
:1041F000523F0108823F0108864ED6F8C401FCF701
:1042000015F90446D6F8C8010D46FCF70FF9CDE9BB
:104210000001D6F8CC01FCF709F9CDE90201D6F886
:10422000D001FCF703F9CDE904017B4B7B48196809
:104230001BE0784ED6F8E001FCF7F8F80446D6F813
:10424000E4010D46FCF7F2F8CDE90001D6F8E801EB
:10425000FCF7ECF8CDE90201D6F8EC01FCF7E6F842
:10426000CDE904016C4801686D4822462B46884719
:1042700078226C480270B1E26B4C6C4A20686C4B3F
:10428000009011686B4801911C68634902940268B0
:10429000694B0392694A0C68694819681268694B4E
:1042A00013E0694C69482368694900930268694BC7
:1042B00001920C68584A029418686749674B03904A
:1042C00014685F481A680968654B1B68A04785E257
:1042D000644E00E0644E3068FCF7A8F8044670684D
:1042E0000D46FCF7A3F8CDE90001B068FCF79EF895
:1042F000CDE90201484A5D4811682B4622468847AD
:104300006CE2584E5A49706AFCF7DCFCFCF78EF8F8
:1043100004460D46B06A5649FCF7D4FCFCF786F813
:10432000CDE900015249F06AFCF7CCFCFCF77EF8BD
:10433000CDE902014F491FE04A4E306BFCF776F899
:104340000446706B0D46FCF771F8CDE90001B06BC7
:10435000CCE7454DA868FCF769F8424A0446D06BA3
:104360000D46FCF763F8CDE90001434B1868FCF7F4
:104370005DF8CDE9020141490868FCF757F8CDE93D
:1043800004012548224601682B463D48884725E21E
:10439000344E3749B069FCF795FCFCF747F8044602
:1043A0000D46F0693249FCF78DFCFCF73FF8CDE98A
:1043B00000012F49306AFCF785FC97E7314E8AE708
:1043C00031490868FCF732F8024613480B46016889
:1043D0002E48DFE02E48C4890189827A83890094BF
:1043E000048A0194448A0294848A0394C48A0494BB
:1043F000048B0594408B084C069024682548A04700
:10440000ECE12549254B0A78002A4BD11C68244849
:104410004CE000BF941F0020841E0020B23F010822
:10442000D93F0108540000206C0E00207C0E0020B3
:104430004C0E0020280E0020340E0020500E0020CC
:10444000FD3F0108440E0020700E00203C0E0020AD
:104450002C0E00205C0E0020240E0020540E0020A4
:10446000400E0020541F0020680A0020B960010897
:10447000E02E6542A80D0020600B0020F8230020EC
:1044800027400108E81E0020E01E0020E960010826
:104490002C00002043400108200B0020801E00203B
:1044A0007F400108012A02D11C689248A047924926
:1044B000924C0A782368012A0CBF9148914898478A
:1044C00091482168884791488C4B0278042A00F271
:1044D0008581DFE802F00306090C0F001A688C489A
:1044E0000AE01A688B4807E01A688B4804E01A68EB
:1044F0008A4801E01A688A4890476FE1894890F835
:104500008020012A1CD1884B1978A9B10024864B40
:1045100086481978864B4A1E944207DA026833F9B6
:104520001410844801349047E4B2F0E7046833F98A
:1045300012108148A04751E1704802687F48DBE7CC
:1045400000247A4D20462E68FEF706FD0134014610
:10455000E4B27B48B047072CF3D120462D68FEF724
:10456000FBFC01467748A84738E10024764E6F4DA2
:10457000A059FBF75BFF043402460B4673482968D9
:1045800088471C2CF2D1F069FBF750FF02460B461E
:104590006F482968884721E16E4E644F6E4D6F4C1D
:1045A00031783B686E4800290CBF29462146984760
:1045B00073783A686A48002B0CBF29462146904719
:1045C000B1783A68674800290CBF2946214622E0A5
:1045D000654D564CB5F840102368564889B2984747
:1045E000AA8F236891B253489847298F226851486F
:1045F00089B29047A98E23684E4889B205F5923555
:104600009847B5F840204B4891B223689847A98E47
:104610002268494889B29047E0E001F0F9FFE0E004
:10462000424E3668FEF782F8FBF700FF04464F481B
:104630000D460068FBF7FAFE2246CDE900012B4645
:104640004B48B04764E10020FFF75CFC2B49494828
:104650000A680CE00120FFF755FC284B46481A6811
:1046600005E00220FFF74EFC2448026843489047CB
:104670006122FEE50320FFF745FC204940480A6817
:104680000CE00420FFF73EFC1C4B3E481A6805E096
:104690000520FFF737FC194802683B489047622223
:1046A000E7E50620FFF72EFC144B384819688847C9
:1046B0006322DEE50720FFF725FC10480168344837
:1046C00088476422D5E500F0B1FB85E000F044FEA8
:1046D00082E001F02DF87FE008492E480A689047F3
:1046E0006420FFF7AFF801206CE0044803682A4813
:1046F00063E000BF98400108250B0020801E0020C9
:10470000B1400108CD400108E9400108210B00201B
:10471000F5400108144101083641010851410108E2
:1047200073410108941F0020FF090020841E00200F
:10473000060E002095410108195B01089C41010803
:10474000C5410108CB410108BC000020D04101084F
:10475000D8410108DC000020763E0108703E0108C7
:10476000DF410108374C010800080040E01E00202E
:10477000E4410108F24101080F4201082D420108FD
:10478000494201086A4201088C420108A742010817
:10479000BF420108D4420108EE42010801F0AAFA22
:1047A0001AE000F059F917E05A4C5B48226890472C
:1047B000012003F021FD2368584898476420FFF743
:1047C00041F80020FFF7B0F9A2E0524B54481968B5
:1047D000884703F0A9FC4BE578232370002151485A
:1047E00093E07822227093E04F4A01241470494CE0
:1047F0004E482368984721684D48884722684D48AD
:10480000904723684C48984721684C48884722685D
:104810004B48904723684B48984721684A48884747
:1048200022684A4890472368494898472168494880
:1048300088472268484890472368484898473B483B
:104840002168884722684648904746480368984749
:104850000028FAD044490A689047444B18701878E9
:1048600020283AD12B4C31482568A8472168404878
:10487000884722683F48904723683F489847256803
:104880003E48A84721683E48884722683D489047EF
:1048900023683D48984725683C48A84721683C481C
:1048A000884722683B48904723683B4898473B48E5
:1048B0002568A8471D4821688847226828489047EE
:1048C0002848036898470028FAD0274D2968884768
:1048D000264D28702A78202A03D0124B01221A7004
:1048E00011E00C4C11482368984721682C488847F0
:1048F00022682C48904723682B4898470B4821682A
:1049000088477820287008480021017000E0FEE701
:104910000BB0F0BD801E00200543010823430108B1
:104920007C3E0108280A0020290A00200B6B0108A0
:104930003B430108A44301080D44010876440108E3
:10494000DF44010848450108B1450108EA4501086E
:10495000234601088C460108C5460108FE460108A9
:10496000674701088C1E0020881E0020540000208C
:1049700099470108D24701080C4801084948010835
:1049800084480108BD480108084901083E4901085A
:104990007C490108B7490108FF490108474A010855
:1049A000804A0108B94A0108F24A0108A0F130031F
:1049B000D9B2092901D8C8B20DE0A0F16102052AD7
:1049C00001D8573804E0A0F14103052B02D837384D
:1049D000C0B200E0FF2040B2704700002DE9F8436C
:1049E00000210446D0F81C7203F048FB94F81A32F8
:1049F000C4F81C02DB0704D544F20300002103F0D5
:104A0000C1FD0025112D1BD04FEA4519C9F50879C4
:104A1000B9F1200FA8BF4FF0200904EB451800267C
:104A20004E4507DA084A18F80610136807489847F1
:104A30000136F5E706480135016806488847E1E791
:104A4000C4F81C72BDE8F883841E0020324B0108B4
:104A5000801E00200B6B01082DE9F0418E488F4B22
:104A6000012204688E48ADF5087D1A70A0478A4976
:104A70008C480C68A0478C4D2A6890470028FAD0D3
:104A80008A4B854D186880472968044688488847BE
:104A9000572C00F0A88137D8462CE8D029D8432CD1
:104AA00000F0A380452C00F098813F2CDFD1814C91
:104AB0007F482568A84722687F48904723687F4839
:104AC000984721687E48884725687E48A84722681D
:104AD0007D48904723687D48984721687C488847EF
:104AE00025687348A84722687A4890472468704828
:104AF000BCE7482C6DD0562CB9D12D687648A84714
:104B0000012003F079FBB2E7652C00F06C8104D83A
:104B1000612C10D0632CAAD141E0662CA7D0782C50
:104B2000A5D16E48296888475C4A002010700DF5B1
:104B3000087DBDE8F0816A4D5E4CD5F81C7205F029
:104B4000FDF80021284603F099FA226806466548D8
:104B50009047236829786448984764484FF408715F
:104B60002568A8472268624839469047236861480B
:104B700031469847B74202D021685F488847256888
:104B80005E48A84756485E4B90F81A225D4912F0DD
:104B9000010F24685C4818BF1946A04767E7454CD9
:104BA00005F0CCF82268424890474D48FFF716FFC1
:104BB00021683F4888470121494803F05FFA534B79
:104BC00098423FF454AF2C685148A0472C68514894
:104BD0004CE73848026850489047414991F81A32EA
:104BE00023F0010481F81A4241E7FEF7F7FD314E48
:104BF0004FF408710A464FF4886337688046474887
:104C0000B847316846488847356846486421A84710
:104C1000684600214FF408720AF0EAF900273D4681
:104C20006E46214C2068804748B1FEF7D7FD2368C7
:104C30008046984750B11D490C68A04706E0FEF732
:104C4000CDFDC8EB0002632AEBD9EEE70446FFF77F
:104C5000ADFE202C0AD00A2C08D00D2C06D0B4F1C1
:104C60005F035A4252EB030114B100E00121013706
:104C700059B9421C58D032780DB90001C0B240EA8F
:104C800002033370761985F0010588AA9642C8D3CD
:104C9000002C60D149E000BF801E0020290A0020BE
:104CA000374B0108524B01088C1E0020881E002043
:104CB0000B6B0108841E0020B84E0108DF4E01086E
:104CC0002E4F0108734F0108C34F01080D50010812
:104CD0005C5001089B5001088B4E0108504E0108A2
:104CE000941F0020614B0108804B0108974B01087D
:104CF000AE4B0108C74B0108E04B0108174C0108F7
:104D0000713E0108763E0108244C01081CDF442155
:104D10003B4C0108844C0108BE4C0108DA4C0108E8
:104D2000164D0108514D010854B96A46314BB11A6C
:104D30001C68314805EB41014FF48862A0473AE016
:104D400088A98E4207D22B483946056822462B484F
:104D50002346A8472FE0002DF5D10121684603F036
:104D60008DF9274CA0420AD0224D26482B6898473F
:104D70002C682548A0476846FFF730FE1BE004F08A
:104D8000DDFF22481DF805102B5C994207D1013543
:104D9000B5F5087FF5D1174801681D480AE0154CA4
:104DA00069464FF408720AF075F81A48226890476D
:104DB000216819488847FEF711FD0546FEF70EFDEC
:104DC000401B63283FF653AE144A116888470028F9
:104DD000F4D0134B1C68A047F0E72B6811489847A4
:104DE00003F054F943E62D680F48A84703F09CF9F7
:104DF0003DE600BF841E0020814D0108BA4D010828
:104E00001CDF4421F04D0108204E0108941F0020B2
:104E1000E15001081B510108365101088C1E002089
:104E2000881E00203C4E01086A4E01082DE9FF4112
:104E30009B4B9C48012201681A709B4888470024BC
:104E40007826984D99482A689047994B186880476A
:104E500010B9002CF9D004E01CB9964E316888478F
:104E60000646904D94482A689047492E00F0AF813D
:104E700020D8452E00F0808115D8422E00F06081A8
:104E80000ED83F2E00F0FD81412EDAD1FEF7FCFF57
:104E9000FCF704F9894C84F8A40004F07FFC75E168
:104EA000442ECED15AE1472E844E00F07A8100F292
:104EB00080816EE1562E00F0D38113D84B2E00F086
:104EC000A581C0F09581552EBBD1FEF7DDFF7C4951
:104ED000FBF7F8FE794DC5F81001FEF7D5FFC5F8D0
:104EE0000C01C9E1612E0AD0782E00F02181572EE5
:104EF000A7D12A687348904703F016F9BFE16F4CB9
:104F00002D687148A84794F8A430032B13D8DFE824
:104F100003F002060A0E634C6C4821680AE0614DFA
:104F20006B48296806E05F4801686A4802E05D4A0C
:104F3000694811688847694A694C604D117823684F
:104F400068489847B5F88A10236867489847B5F8C5
:104F50008C10664822689047D5F8A8504FF07E51D3
:104F60002846FCF743F810B12168614808E0614920
:104F70002846FCF73BF8216808B15F4800E05F482D
:104F80004E4C884794F8A40030BB554DB4F8AC1093
:104F90002B685B489847D4F8B000FCF77FF82A6884
:104FA00081B258489047D4F8B400FCF777F82B68E2
:104FB00081B255489847D4F8B800FCF76FF82A68D2
:104FC00081B252489047D4F8BC00FBF72FFA024652
:104FD0000B464F4829688847384C94F8A4000328AA
:104FE00030D13F4F4B483D6894F8C010A847002788
:104FF000324B93F8C020BA4220D94FF00C0808FB7E
:105000000738D8F8C400FBF711FA0446D8F8C800EE
:105010000D46FBF70BFACDE90001D8F8CC00FBF701
:1050200005FACDE902012E483946D0F800C02246E3
:1050300039482B460137E047FFB2D9E719491E48E6
:105040000C68A0471D4D3549D5F81001FBF73AFE15
:10505000FBF7ECF9224C02460B46314821688847A1
:10506000D5F80C01FBF7E2F902460B462D48216802
:105070008847D5F818012949FBF724FEFBF7D6F934
:1050800002460B46284821688847D5F81401FBF7EB
:10509000CDF9246802460B462448A047EFE000BF44
:1050A000290A0020801E00206D5101088751010847
:1050B0008C1E0020881E00200B6B0108941F00200E
:1050C00035FA8E3C6A4E010895510108AD51010830
:1050D000BF510108D1510108E3510108F423002018
:1050E000841E0020F55101081F5201084852010892
:1050F00072520108000080BF9B520108C45201088F
:10510000ED520108165301083E5301086653010889
:105110008F530108B9530108FB530108E02E654283
:105120001A540108435401086D54010896540108AB
:1051300071482B689847714900200870BDE8FF81CD
:10514000FEF7A2FEFBF7AAFF6D4DA5F88A00FEF759
:105150009BFEFBF7A3FFA5F88C0017E0FEF794FE7B
:105160000021FBF761FF10B14FF07E5600E0654E65
:10517000634CC4F8A8607FE0614C94F8A4308BBB0A
:10518000FEF782FEFBF78AFFA4F8AC00FDF7EAFE0B
:1051900072E096F8A40028BBFEF776FEC6F8B000D1
:1051A0000EE096F8A420EAB9FEF76EFEC6F8B40049
:1051B00006E096F8A410A9B9FEF766FEC6F8B80096
:1051C000FBF76CFF81B20520FDF758FF54E04C4C13
:1051D00094F8A43033B9FEF757FEC4F8BC0003F0CE
:1051E00055FA49E0FEF750FE474A4848126835E054
:1051F000434E96F8A40003282BD1FEF745FEFBF79B
:105200004DFF86F8C00004F0C9FA35E03C4C94F834
:10521000A450032D19D1FEF737FE8046FEF734FE69
:105220000746FEF731FE06463846FBF737FF431EBA
:105230004046DFB2FBF732FF0138C1B205FB017512
:1052400004EB8504C4F8C46016E0FEF71DFEFEF70B
:105250001BFEFEF719FE2C492D480A6890470BE00B
:10526000FEF712FE2B49FBF72DFD254EC6F818015F
:10527000FEF70AFEC6F8140101246126E1E50024C8
:10528000DFE52B68244898472968244888472A681E
:105290002348904723482B689847194890F8A41052
:1052A00071B92A68204890472B6820489847296898
:1052B0001F4888472A681F4890472D681E48A847FE
:1052C0000F481E4D90F8A430032B05D11C482968C7
:1052D00088472A681B4890472B681B4898472968CD
:1052E0001A4888472A681A4890472B6819489847EF
:1052F0002D680948A847A4E5C0540108290A0020E0
:10530000941F0020000080BF841E0020D954010893
:10531000FE54010835FA8E3C0B6B01081B55010841
:105320008D550108ED5501084C560108A756010896
:10533000015701085B570108B5570108801E00207E
:105340001858010873580108D75801083A5901083C
:105350009D590108E55901082DE9FF41A44BA548D5
:10536000012201681A70A448884700267824A14DBC
:10537000A2482A689047A24B1868804710B9002EAF
:10538000F9D004E01EB99F4C216888470446994D26
:105390009D482A689047452C00F0648124D8422C0F
:1053A00000F00F8105D83F2C00F08781412CDED121
:1053B000E2E0432C00F00D81442CD8D1FEF764FDCF
:1053C000924EC6F89000FEF75FFDC6F89400FEF717
:1053D0005BFDC6F89800FEF757FDC6F89C00FEF787
:1053E00053FDC6F8A0005EE1572C00F05F810FD896
:1053F000462C00F04581472CB9D1FEF745FD844984
:10540000FBF714FD8349FBF75DFC804B98674AE18D
:10541000612C09D0782CAAD17F4829688847744824
:1054200000220270BDE8FF81784E2F687B48B847A4
:1054300096F8803023B1012B05D12D68784801E022
:105440002D687848A8476B4977480A689047002339
:105450006E4F7649D81990F8826004AD585C0133DC
:10546000AA19082B02F80C0CF2D1624E4FF000087A
:10547000356801A88DF80C80A8476D4D32686248E8
:10548000904729686B4888472B686B489847D7F83E
:105490009000FBF703FE2E6881B26848B047D7F84A
:1054A0009400FBF7FBFD2A6881B265489047D7F866
:1054B0009800FBF7F3FD2B6881B262489847D7F854
:1054C0009C00FBF7EBFD2E6881B25F48B047D7F830
:1054D000A000FBF7E3FD2A6881B25C489047386F73
:1054E000FAF7A4FF3EA3D3E90023FAF7F3FF3EA3A4
:1054F000D3E90023FBF718F9FBF786FAFAF796FFD2
:1055000002460B46524829688847786FFAF78EFFA3
:1055100033A3D3E90023FAF7DDFF33A3D3E9002354
:10552000FBF702F9FBF770FAFAF780FF2E680246E4
:105530000B464848B047B86FFAF778FF28A3D3E97D
:105540000023FAF7C7FF28A3D3E90023FBF7ECF801
:10555000FBF75AFAFAF76AFF02460B463E482968FB
:1055600088472B6897F814123C4898472D683C48A8
:1055700097F81512A8479EE01C26244D8DF8006070
:105580000024684601268DF801408DF802608DF8F0
:10559000034005F08DF995F880204FF080403AB92E
:1055A000022105F061FF85F88060FDF731FF7BE0A7
:1055B0003146224605F058FF85F88040FDF76EFC25
:1055C00072E001A80821FEF737FC01A802F03EFDB9
:1055D00069E00E4C002084F8810064E0AFF30080A5
:1055E0000000000000F9054100000060FB210940B7
:1055F000290A0020801E0020255A0108425A01086D
:105600008C1E0020881E00200B6B0108941F0020B8
:1056100000C82F48DB0F4940715C0108535A01084C
:105620007A5A0108755A0108845A0108557101080F
:10563000841E0020A55A0108C65A0108D35A010841
:10564000F95A01081F5B0108455B01086B5B010803
:10565000925B0108BD5B0108E85B0108185C01086A
:10566000445C0108FEF710FCFBF718FD224C84F89F
:105670001402FEF709FCFBF711FD84F8150212E095
:10568000FEF702FC1D49FBF7D1FB1D49FBF71AFB96
:10569000194D2867FEF7F8FB1849FBF7C7FB1849B7
:1056A000FBF710FB68670126612460E62A6815484D
:1056B000904702F039FD002659E62B6812489847BA
:1056C0002968124888472A68114890472B68114872
:1056D00098472968104888472A68104890472B68DF
:1056E0000F48984729680F4888472A680E4890470E
:1056F0002D680548A8473AE6941F002000C82F48A7
:10570000DB0F49406A4E01080B6B01088D5C0108F4
:10571000DA5C0108395D0108B65D0108215E010807
:10572000955E01089D590108E25E0108AFF3008013
:105730002DE9FF41494B4A48012201681A70494846
:10574000884700247826464D47482A689047474BAB
:105750001868804710B9002CF9D004E01CB9444EF9
:105760003168884706463E4D42482A689047572E82
:1057700000F069821ED8442E00F038820AD8422EEA
:1057800000F02A8200F22D823F2E00F06382412E2B
:10579000D9D101E24E2E00F02E82562E00F0418229
:1057A000452ED0D1FEF770FB334D6866FEF76CFBDB
:1057B000A86645E2642E00F07E8107D8622E00F0D4
:1057C0006D8100F27581612EBDD113E0702E00F065
:1057D0008A8102D86D2EB6D176E1762E00F0D08186
:1057E000782EB0D12A68254890471C4B00211970AB
:1057F000BDE8FF81204F2C687878012848D12048E7
:10580000A047F869FAF712FE0446386A0D46FAF71F
:105810000DFECDE90001786AFAF708FEDFF86C802A
:1058200022462B46CDE90201D8F8001015488847DA
:10583000B86AFAF7FBFD0446F86A0D46FAF7F6FD7A
:10584000CDE90001386BFAF7F1FDD8F80070CDE929
:10585000020122460C482B46B8471BE0290A0020CB
:10586000801E0020225F01083D5F01088C1E002081
:10587000881E00200B6B0108941F00202463010880
:105880004C5F0108615F0108915F0108841E0020E0
:105890009A48A0479A4FDFF8C4823869FAF7C6FDE4
:1058A000044678690D46FAF7C1FDCDE90001B869F3
:1058B000FAF7BCFD22462B46CDE90201D8F80010CC
:1058C000904888477868FAF7B1FD0446B8680D46F5
:1058D000FAF7ACFDCDE90001F868FAF7A7FD22461A
:1058E0002B46CDE90201D8F8001087488847786B2D
:1058F000FAF79CFD0446B86B0D46FAF797FDCDE923
:105900000001F86BFAF792FD22462B46CDE9020121
:10591000D8F800107D488847386CFAF787FD0446B0
:10592000786C0D46FAF782FDCDE90001B86CFAF704
:105930007DFD22462B46CDE90201D8F800107448BF
:105940008847F86CFAF772FD0446386D0D46FAF791
:105950006DFDCDE90001786DFAF768FD2246CDE9CD
:1059600002012B46D8F800106A4888476A4B18682D
:10597000FAF75CFDD8F8004002460B466748A0479E
:10598000B86DFAF753FDD8F8005002460B4664484C
:10599000A847F86DFAF74AFD02460B466148D8F869
:1059A00000108847386EFAF741FDD8F800400246EB
:1059B0000B465D48A047786EFAF738FDD8F80050DE
:1059C00002460B465948A847B86EFAF72FFD024623
:1059D0000B465748D8F8001088477A78012A17D123
:1059E000544C55482368984797F86C0003280FD803
:1059F000DFE800F00205080B2568504807E025683D
:105A00004F4804E025684F4801E025684E48A84704
:105A1000B978484A012914680CBF4C484C48A04743
:105A2000374C444894F819320568012B0CBF49489B
:105A30004948A847D4F80002FAF7F8FC474D024657
:105A40000B46474829688847D4F80402FAF7EEFC69
:105A50000B4602462968434888472A6894F8FC1197
:105A600041489047D4F80802FAF7E0FC02460B469A
:105A70003E4829688847D4F80C02FAF7D7FC02465A
:105A80000B463B4829688847D4F81002FAF7CEFC49
:105A90002C6802460B463748A047D9E0184E747868
:105AA000012C02D101F0C2F8CBE000F075FFC7E095
:105AB00000F0DEFEC4E0124C667816B900F076FA0B
:105AC000BEE000F0F7FBBBE00D4B587830B100258D
:105AD0005D70FBF70FFFFCF745FAB1E001245C7045
